{
  "tests/verkle/eip7748/modified_accounts.py::test_modified_contract_conversion_units[fork_EIP6800Transition-blockchain_test]": {
    "network": "ShanghaiToVerkleAtTime32",
    "genesisBlockHeader": {
      "parentHash": "0x0000000000000000000000000000000000000000000000000000000000000000",
      "uncleHash": "0x1dcc4de8dec75d7aab85b567b6ccd41ad312451b948a7413f0a142fd40d49347",
      "coinbase": "0x0000000000000000000000000000000000000000",
      "stateRoot": "0xb37c9959b18258be79ebb59256bfeb390f62004e0a1265ce58734d8b0adff46b",
      "transactionsTrie": "0x56e81f171bcc55a6ff8345e692c0f86e5b48e01b996cadc001622fb5e363b421",
      "receiptTrie": "0x56e81f171bcc55a6ff8345e692c0f86e5b48e01b996cadc001622fb5e363b421",
      "bloom": "0x00000000000000000000000000000000000000000000000000000000000000000000000000000000000000000000000000000000000000000000000000000000000000000000000000000000000000000000000000000000000000000000000000000000000000000000000000000000000000000000000000000000000000000000000000000000000000000000000000000000000000000000000000000000000000000000000000000000000000000000000000000000000000000000000000000000000000000000000000000000000000000000000000000000000000000000000000000000000000000000000000000000000000000000000000000000",
      "difficulty": "0x00",
      "number": "0x00",
      "gasLimit": "0x02540be400",
      "gasUsed": "0x00",
      "timestamp": "0x00",
      "extraData": "0x00",
      "mixHash": "0x0000000000000000000000000000000000000000000000000000000000000000",
      "nonce": "0x0000000000000000",
      "baseFeePerGas": "0x07",
      "withdrawalsRoot": "0x56e81f171bcc55a6ff8345e692c0f86e5b48e01b996cadc001622fb5e363b421",
      "hash": "0x00d54464283d01052bf0524f36a8c26b20297c7f611d49a18a555c1dd9782e83"
    },
    "pre": {
      "0xa94f5374fce5edbc8e2a8697c15331677e6ebf0b": {
        "nonce": "0x00",
        "balance": "0x3635c9adc5dea00000",
        "code": "0x",
        "storage": {}
      },
      "0x0000000000000000000000000000000000000014": {
        "nonce": "0x00",
        "balance": "0x64",
        "code": "0x",
        "storage": {}
      },
      "0x000000000000000000000000000000000000005b": {
        "nonce": "0x00",
        "balance": "0x044c",
        "code": "0x",
        "storage": {}
      },
      "0x0000000000000000000000000000000000000045": {
        "nonce": "0x00",
        "balance": "0x0834",
        "code": "0x",
        "storage": {}
      },
      "0x000000000000000000000000000000000000004f": {
        "nonce": "0x00",
        "balance": "0x0c1c",
        "code": "0x",
        "storage": {}
      },
      "0x0000000000000000000000000000000000000001": {
        "nonce": "0x00",
        "balance": "0x1004",
        "code": "0x",
        "storage": {}
      },
      "0x0000000000000000000000000000000000000037": {
        "nonce": "0x00",
        "balance": "0x13ec",
        "code": "0x",
        "storage": {}
      },
      "0x000000000000000000000000000000000000002e": {
        "nonce": "0x00",
        "balance": "0x17d4",
        "code": "0x",
        "storage": {}
      },
      "0x0000000000000000000000000000000000000061": {
        "nonce": "0x00",
        "balance": "0x03e8",
        "code": "0x612710600055612711600155612712600255612713600355612714600455612715600555612716600655",
        "storage": {
          "0x00": "0x64",
          "0x01": "0x65",
          "0x02": "0x66",
          "0x03": "0x67",
          "0x04": "0x68",
          "0x05": "0x69",
          "0x06": "0x6a"
        }
      },
      "0x0000000000000000000000000000000000000044": {
        "nonce": "0x00",
        "balance": "0x03e8",
        "code": "0x",
        "storage": {}
      },
      "0x0000000000000000000000000000000000000036": {
        "nonce": "0x00",
        "balance": "0x03e9",
        "code": "0x",
        "storage": {}
      },
      "0x0000000000000000000000000000000000000020": {
        "nonce": "0x00",
        "balance": "0x03ea",
        "code": "0x",
        "storage": {}
      }
    },
    "lastblockhash": "0x42a229edaa626b067d1ddf99509a549aee31825d7ba6fd6f5f35b52a3d738502",
    "genesisRLP": "0xf9021af90214a00000000000000000000000000000000000000000000000000000000000000000a01dcc4de8dec75d7aab85b567b6ccd41ad312451b948a7413f0a142fd40d49347940000000000000000000000000000000000000000a0b37c9959b18258be79ebb59256bfeb390f62004e0a1265ce58734d8b0adff46ba056e81f171bcc55a6ff8345e692c0f86e5b48e01b996cadc001622fb5e363b421a056e81f171bcc55a6ff8345e692c0f86e5b48e01b996cadc001622fb5e363b421b901000000000000000000000000000000000000000000000000000000000000000000000000000000000000000000000000000000000000000000000000000000000000000000000000000000000000000000000000000000000000000000000000000000000000000000000000000000000000000000000000000000000000000000000000000000000000000000000000000000000000000000000000000000000000000000000000000000000000000000000000000000000000000000000000000000000000000000000000000000000000000000000000000000000000000000000000000000000000000000000000000000000000000000000000000000000080808502540be400808000a0000000000000000000000000000000000000000000000000000000000000000088000000000000000007a056e81f171bcc55a6ff8345e692c0f86e5b48e01b996cadc001622fb5e363b421c0c0c0",
    "blocks": [
      {
        "blockHeader": {
          "parentHash": "0x00d54464283d01052bf0524f36a8c26b20297c7f611d49a18a555c1dd9782e83",
          "uncleHash": "0x1dcc4de8dec75d7aab85b567b6ccd41ad312451b948a7413f0a142fd40d49347",
          "coinbase": "0x2adc25665018aa1fe0e6bc666dac8fc2697ff9ba",
          "stateRoot": "0xb37c9959b18258be79ebb59256bfeb390f62004e0a1265ce58734d8b0adff46b",
          "transactionsTrie": "0x56e81f171bcc55a6ff8345e692c0f86e5b48e01b996cadc001622fb5e363b421",
          "receiptTrie": "0x56e81f171bcc55a6ff8345e692c0f86e5b48e01b996cadc001622fb5e363b421",
          "bloom": "0x00000000000000000000000000000000000000000000000000000000000000000000000000000000000000000000000000000000000000000000000000000000000000000000000000000000000000000000000000000000000000000000000000000000000000000000000000000000000000000000000000000000000000000000000000000000000000000000000000000000000000000000000000000000000000000000000000000000000000000000000000000000000000000000000000000000000000000000000000000000000000000000000000000000000000000000000000000000000000000000000000000000000000000000000000000000",
          "difficulty": "0x00",
          "number": "0x01",
          "gasLimit": "0x02540be400",
          "gasUsed": "0x00",
          "timestamp": "0x1f",
          "extraData": "0x",
          "mixHash": "0x0000000000000000000000000000000000000000000000000000000000000000",
          "nonce": "0x0000000000000000",
          "baseFeePerGas": "0x07",
          "withdrawalsRoot": "0x56e81f171bcc55a6ff8345e692c0f86e5b48e01b996cadc001622fb5e363b421",
          "hash": "0x11899e84542eb5d02b2915a94d12cc7a5103c952ddac12b66c97c4b2fdd0da15"
        },
        "transactions": [],
        "uncleHeaders": [],
        "withdrawals": [],
        "rlp": "0xf9021af90214a000d54464283d01052bf0524f36a8c26b20297c7f611d49a18a555c1dd9782e83a01dcc4de8dec75d7aab85b567b6ccd41ad312451b948a7413f0a142fd40d49347942adc25665018aa1fe0e6bc666dac8fc2697ff9baa0b37c9959b18258be79ebb59256bfeb390f62004e0a1265ce58734d8b0adff46ba056e81f171bcc55a6ff8345e692c0f86e5b48e01b996cadc001622fb5e363b421a056e81f171bcc55a6ff8345e692c0f86e5b48e01b996cadc001622fb5e363b421b901000000000000000000000000000000000000000000000000000000000000000000000000000000000000000000000000000000000000000000000000000000000000000000000000000000000000000000000000000000000000000000000000000000000000000000000000000000000000000000000000000000000000000000000000000000000000000000000000000000000000000000000000000000000000000000000000000000000000000000000000000000000000000000000000000000000000000000000000000000000000000000000000000000000000000000000000000000000000000000000000000000000000000000000000000000000080018502540be400801f80a0000000000000000000000000000000000000000000000000000000000000000088000000000000000007a056e81f171bcc55a6ff8345e692c0f86e5b48e01b996cadc001622fb5e363b421c0c0c0",
        "blocknumber": "1"
      },
      {
        "blockHeader": {
          "parentHash": "0x11899e84542eb5d02b2915a94d12cc7a5103c952ddac12b66c97c4b2fdd0da15",
          "uncleHash": "0x1dcc4de8dec75d7aab85b567b6ccd41ad312451b948a7413f0a142fd40d49347",
          "coinbase": "0x2adc25665018aa1fe0e6bc666dac8fc2697ff9ba",
          "stateRoot": "0x0dbf10bfc60c3818ecac44479481a0f76b9926915a34fbeadb27ac52d55260a1",
          "transactionsTrie": "0xcbd27266829cce0c5217c36688ff36d45404ec6df9e6074a574b4f7c42ec2650",
          "receiptTrie": "0x6d3a1fb5e73cc7467073f311830685bdffb3ba2d910ab4fc5c6b2a7923d76bb0",
          "bloom": "0x00000000000000000000000000000000000000000000000000000000000000000000000000000000000000000000000000000000000000000000000000000000000000000000000000000000000000000000000000000000000000000000000000000000000000000000000000000000000000000000000000000000000000000000000000000000000000000000000000000000000000000000000000000000000000000000000000000000000000000000000000000000000000000000000000000000000000000000000000000000000000000000000000000000000000000000000000000000000000000000000000000000000000000000000000000000",
          "difficulty": "0x00",
          "number": "0x02",
          "gasLimit": "0x02540be400",
          "gasUsed": "0x66e6",
          "timestamp": "0x20",
          "extraData": "0x",
          "mixHash": "0x0000000000000000000000000000000000000000000000000000000000000000",
          "nonce": "0x0000000000000000",
          "baseFeePerGas": "0x07",
          "withdrawalsRoot": "0x56e81f171bcc55a6ff8345e692c0f86e5b48e01b996cadc001622fb5e363b421",
          "hash": "0xcd0181eb1912495788d949059983007d25381e3ef72b20c99720b8c9626800a2"
        },
        "transactions": [
          {
            "type": "0x00",
            "chainId": "0x01",
            "nonce": "0x00",
            "gasPrice": "0x0a",
            "gasLimit": "0x0186a0",
            "to": "0x0000000000000000000000000000000000000061",
            "value": "0x64",
            "data": "0x",
            "v": "0x25",
            "r": "0x9c98a7a4552c210f597ea34f6794f87a31fd2eb0be82d3b082f228b45afe72ef",
            "s": "0x1f2ddd310e601afbabf6c329d904dffdeda573ba7b8bd63a4134e3a66f687183",
            "sender": "0xa94f5374fce5edbc8e2a8697c15331677e6ebf0b"
          }
        ],
        "uncleHeaders": [],
        "withdrawals": [],
        "rlp": "0xf9027ff90216a011899e84542eb5d02b2915a94d12cc7a5103c952ddac12b66c97c4b2fdd0da15a01dcc4de8dec75d7aab85b567b6ccd41ad312451b948a7413f0a142fd40d49347942adc25665018aa1fe0e6bc666dac8fc2697ff9baa00dbf10bfc60c3818ecac44479481a0f76b9926915a34fbeadb27ac52d55260a1a0cbd27266829cce0c5217c36688ff36d45404ec6df9e6074a574b4f7c42ec2650a06d3a1fb5e73cc7467073f311830685bdffb3ba2d910ab4fc5c6b2a7923d76bb0b901000000000000000000000000000000000000000000000000000000000000000000000000000000000000000000000000000000000000000000000000000000000000000000000000000000000000000000000000000000000000000000000000000000000000000000000000000000000000000000000000000000000000000000000000000000000000000000000000000000000000000000000000000000000000000000000000000000000000000000000000000000000000000000000000000000000000000000000000000000000000000000000000000000000000000000000000000000000000000000000000000000000000000000000000000000000080028502540be4008266e62080a0000000000000000000000000000000000000000000000000000000000000000088000000000000000007a056e81f171bcc55a6ff8345e692c0f86e5b48e01b996cadc001622fb5e363b421f862f860800a830186a0940000000000000000000000000000000000000061648025a09c98a7a4552c210f597ea34f6794f87a31fd2eb0be82d3b082f228b45afe72efa01f2ddd310e601afbabf6c329d904dffdeda573ba7b8bd63a4134e3a66f687183c0c0",
        "blocknumber": "2"
      },
      {
        "blockHeader": {
          "parentHash": "0xcd0181eb1912495788d949059983007d25381e3ef72b20c99720b8c9626800a2",
          "uncleHash": "0x1dcc4de8dec75d7aab85b567b6ccd41ad312451b948a7413f0a142fd40d49347",
          "coinbase": "0x2adc25665018aa1fe0e6bc666dac8fc2697ff9ba",
          "stateRoot": "0x5864c7424083fe0e809c59d08923fafa44fb39fef2cffd9d1285a3588e7e01d1",
          "transactionsTrie": "0x56e81f171bcc55a6ff8345e692c0f86e5b48e01b996cadc001622fb5e363b421",
          "receiptTrie": "0x56e81f171bcc55a6ff8345e692c0f86e5b48e01b996cadc001622fb5e363b421",
          "bloom": "0x00000000000000000000000000000000000000000000000000000000000000000000000000000000000000000000000000000000000000000000000000000000000000000000000000000000000000000000000000000000000000000000000000000000000000000000000000000000000000000000000000000000000000000000000000000000000000000000000000000000000000000000000000000000000000000000000000000000000000000000000000000000000000000000000000000000000000000000000000000000000000000000000000000000000000000000000000000000000000000000000000000000000000000000000000000000",
          "difficulty": "0x00",
          "number": "0x03",
          "gasLimit": "0x02540be400",
          "gasUsed": "0x00",
          "timestamp": "0x2c",
          "extraData": "0x",
          "mixHash": "0x0000000000000000000000000000000000000000000000000000000000000000",
          "nonce": "0x0000000000000000",
          "baseFeePerGas": "0x07",
          "withdrawalsRoot": "0x56e81f171bcc55a6ff8345e692c0f86e5b48e01b996cadc001622fb5e363b421",
          "hash": "0x71b4b8eec0b757a0f7bdab4c219ec44ee14a238013750f84105e1d2b973e6dc2"
        },
        "transactions": [],
        "uncleHeaders": [],
        "withdrawals": [],
        "rlp": "0xf9021af90214a0cd0181eb1912495788d949059983007d25381e3ef72b20c99720b8c9626800a2a01dcc4de8dec75d7aab85b567b6ccd41ad312451b948a7413f0a142fd40d49347942adc25665018aa1fe0e6bc666dac8fc2697ff9baa05864c7424083fe0e809c59d08923fafa44fb39fef2cffd9d1285a3588e7e01d1a056e81f171bcc55a6ff8345e692c0f86e5b48e01b996cadc001622fb5e363b421a056e81f171bcc55a6ff8345e692c0f86e5b48e01b996cadc001622fb5e363b421b901000000000000000000000000000000000000000000000000000000000000000000000000000000000000000000000000000000000000000000000000000000000000000000000000000000000000000000000000000000000000000000000000000000000000000000000000000000000000000000000000000000000000000000000000000000000000000000000000000000000000000000000000000000000000000000000000000000000000000000000000000000000000000000000000000000000000000000000000000000000000000000000000000000000000000000000000000000000000000000000000000000000000000000000000000000000080038502540be400802c80a0000000000000000000000000000000000000000000000000000000000000000088000000000000000007a056e81f171bcc55a6ff8345e692c0f86e5b48e01b996cadc001622fb5e363b421c0c0c0",
        "blocknumber": "3"
      },
      {
        "blockHeader": {
          "parentHash": "0x71b4b8eec0b757a0f7bdab4c219ec44ee14a238013750f84105e1d2b973e6dc2",
          "uncleHash": "0x1dcc4de8dec75d7aab85b567b6ccd41ad312451b948a7413f0a142fd40d49347",
          "coinbase": "0x2adc25665018aa1fe0e6bc666dac8fc2697ff9ba",
          "stateRoot": "0x15878bfcfc8013add8b3ae643fb5c50f43600654d57d3e7d3e97c1435be509b8",
          "transactionsTrie": "0x56e81f171bcc55a6ff8345e692c0f86e5b48e01b996cadc001622fb5e363b421",
          "receiptTrie": "0x56e81f171bcc55a6ff8345e692c0f86e5b48e01b996cadc001622fb5e363b421",
          "bloom": "0x00000000000000000000000000000000000000000000000000000000000000000000000000000000000000000000000000000000000000000000000000000000000000000000000000000000000000000000000000000000000000000000000000000000000000000000000000000000000000000000000000000000000000000000000000000000000000000000000000000000000000000000000000000000000000000000000000000000000000000000000000000000000000000000000000000000000000000000000000000000000000000000000000000000000000000000000000000000000000000000000000000000000000000000000000000000",
          "difficulty": "0x00",
          "number": "0x04",
          "gasLimit": "0x02540be400",
          "gasUsed": "0x00",
          "timestamp": "0x38",
          "extraData": "0x",
          "mixHash": "0x0000000000000000000000000000000000000000000000000000000000000000",
          "nonce": "0x0000000000000000",
          "baseFeePerGas": "0x07",
          "withdrawalsRoot": "0x56e81f171bcc55a6ff8345e692c0f86e5b48e01b996cadc001622fb5e363b421",
          "hash": "0x109fc4e1a3276958b88343599a4dd9748bfcb772089de9c065dcc451e8080a73"
        },
        "transactions": [],
        "uncleHeaders": [],
        "withdrawals": [],
        "rlp": "0xf9021af90214a071b4b8eec0b757a0f7bdab4c219ec44ee14a238013750f84105e1d2b973e6dc2a01dcc4de8dec75d7aab85b567b6ccd41ad312451b948a7413f0a142fd40d49347942adc25665018aa1fe0e6bc666dac8fc2697ff9baa015878bfcfc8013add8b3ae643fb5c50f43600654d57d3e7d3e97c1435be509b8a056e81f171bcc55a6ff8345e692c0f86e5b48e01b996cadc001622fb5e363b421a056e81f171bcc55a6ff8345e692c0f86e5b48e01b996cadc001622fb5e363b421b901000000000000000000000000000000000000000000000000000000000000000000000000000000000000000000000000000000000000000000000000000000000000000000000000000000000000000000000000000000000000000000000000000000000000000000000000000000000000000000000000000000000000000000000000000000000000000000000000000000000000000000000000000000000000000000000000000000000000000000000000000000000000000000000000000000000000000000000000000000000000000000000000000000000000000000000000000000000000000000000000000000000000000000000000000000000080048502540be400803880a0000000000000000000000000000000000000000000000000000000000000000088000000000000000007a056e81f171bcc55a6ff8345e692c0f86e5b48e01b996cadc001622fb5e363b421c0c0c0",
        "blocknumber": "4"
      },
      {
        "blockHeader": {
          "parentHash": "0x109fc4e1a3276958b88343599a4dd9748bfcb772089de9c065dcc451e8080a73",
          "uncleHash": "0x1dcc4de8dec75d7aab85b567b6ccd41ad312451b948a7413f0a142fd40d49347",
          "coinbase": "0x2adc25665018aa1fe0e6bc666dac8fc2697ff9ba",
          "stateRoot": "0x653428d2e3a7c6d8f5ee221c772d1c231a5796ff464eb39a033bc7adf6bcad83",
          "transactionsTrie": "0x56e81f171bcc55a6ff8345e692c0f86e5b48e01b996cadc001622fb5e363b421",
          "receiptTrie": "0x56e81f171bcc55a6ff8345e692c0f86e5b48e01b996cadc001622fb5e363b421",
          "bloom": "0x00000000000000000000000000000000000000000000000000000000000000000000000000000000000000000000000000000000000000000000000000000000000000000000000000000000000000000000000000000000000000000000000000000000000000000000000000000000000000000000000000000000000000000000000000000000000000000000000000000000000000000000000000000000000000000000000000000000000000000000000000000000000000000000000000000000000000000000000000000000000000000000000000000000000000000000000000000000000000000000000000000000000000000000000000000000",
          "difficulty": "0x00",
          "number": "0x05",
          "gasLimit": "0x02540be400",
          "gasUsed": "0x00",
          "timestamp": "0x44",
          "extraData": "0x",
          "mixHash": "0x0000000000000000000000000000000000000000000000000000000000000000",
          "nonce": "0x0000000000000000",
          "baseFeePerGas": "0x07",
          "withdrawalsRoot": "0x56e81f171bcc55a6ff8345e692c0f86e5b48e01b996cadc001622fb5e363b421",
          "hash": "0x42a229edaa626b067d1ddf99509a549aee31825d7ba6fd6f5f35b52a3d738502"
        },
        "transactions": [],
        "uncleHeaders": [],
        "withdrawals": [],
        "rlp": "0xf9021af90214a0109fc4e1a3276958b88343599a4dd9748bfcb772089de9c065dcc451e8080a73a01dcc4de8dec75d7aab85b567b6ccd41ad312451b948a7413f0a142fd40d49347942adc25665018aa1fe0e6bc666dac8fc2697ff9baa0653428d2e3a7c6d8f5ee221c772d1c231a5796ff464eb39a033bc7adf6bcad83a056e81f171bcc55a6ff8345e692c0f86e5b48e01b996cadc001622fb5e363b421a056e81f171bcc55a6ff8345e692c0f86e5b48e01b996cadc001622fb5e363b421b901000000000000000000000000000000000000000000000000000000000000000000000000000000000000000000000000000000000000000000000000000000000000000000000000000000000000000000000000000000000000000000000000000000000000000000000000000000000000000000000000000000000000000000000000000000000000000000000000000000000000000000000000000000000000000000000000000000000000000000000000000000000000000000000000000000000000000000000000000000000000000000000000000000000000000000000000000000000000000000000000000000000000000000000000000000000080058502540be400804480a0000000000000000000000000000000000000000000000000000000000000000088000000000000000007a056e81f171bcc55a6ff8345e692c0f86e5b48e01b996cadc001622fb5e363b421c0c0c0",
        "blocknumber": "5"
      }
    ],
    "sealEngine": "NoProof",
    "_info": {
      "hash": "0xa22f783515dcdd1a11bd68278b9b34a96de8eacf236ff723e5c5b128645d126c",
      "comment": "`execution-spec-tests` generated test",
      "filling-transition-tool": "evm version 1.12.1-unstable-5475b2df-20250312",
      "description": "Test function documentation:\n\n    Test stale contract storage slots are properly counted as used conversion units.",
      "url": "https://github.com/ethereum/execution-spec-tests/blob/55af9890c85282fcdc2956636b16df33a59133fb/tests/verkle/eip7748/modified_accounts.py#L136",
      "reference-spec": "https://github.com/ethereum/EIPs/blob/master/EIPS/eip-7748.md",
      "reference-spec-version": "TODO"
    }
  }
}
